:100000000C945A000C9477000C9477000C947700B1
:100010000C9477000C9477000C9477000C94770084
:100020000C9477000C9477000C9477000C94770074
:100030000C9477000C9477000C9477000C94770064
:100040000C9477000C9477000C9481040C94770046
:100050000C949E040C9479000C9477000C94770017
:100060000C9410020C9477000C9477000C94770099
:100070000C9477000C9477000C9477000C94770024
:100080000C9477000C9477000C9477000C94770014
:100090000C9477000C9477000C9477000C94F90181
:1000A0000C9424030C9477000C9477000C94770044
:1000B0000C94770011241FBECFEFD8E0DEBFCDBF78
:1000C00011E0A0E0B1E0E6E6F8E102C005900D9293
:1000D000A03CB107D9F722E0A0ECB1E001C01D922D
:1000E000A231B207E1F70E9487060C94310C0C9400
:1000F00000001F920F920FB60F9211248F9381E090
:10010000809300018F910F900FBE0F901F90189554
:100110001F93CF93DF9300D000D0CDB7DEB7182F59
:10012000862F642F70E0762F6627770FAB01516022
:10013000682F70E0762F66277295707F642B752B81
:1001400070686A83798322E030E0AE014F5F5F4FD1
:1001500061E0812F0E9413042FEF83EC99E021507E
:1001600080409040E1F700C0000022E030E0AE01A6
:100170004D5F5F4F60E0812F0E9498038B8190E07C
:10018000982F88272C81820F911D0F900F900F9030
:100190000F90DF91CF911F9108959C01211584E06C
:1001A000380770F49FB3892F827091FDFBCF32BD69
:1001B00021BD9FB391609FBB90B5FB0190830895D3
:1001C00082E008959C01211584E0380778F49FB3FC
:1001D000892F827091FDFBCF32BD21BD60BD9FB3E1
:1001E00094609FBB9FB392609FBB089582E0089587
:1001F000FF920F931F93CF93DF931F92CDB7DEB77C
:10020000811524E0920700F5F62E8C011982BE01BB
:100210006F5F7F4F0E94CD0081111BC089818F15B8
:10022000A9F06F2DC8010E94E200811112C0BE0129
:100230006F5F7F4FC8010E94CD0081110AC0898184
:10024000F81631F081E005C082E003C080E001C013
:1002500080E00F90DF91CF911F910F91FF90089553
:10026000CF92DF92EF92FF920F931F93CF93DF9382
:100270006C017B018A01C0E0D0E00CC0F701EC0FFB
:10028000FD1F6081CE018C0D9D1D0E94F800811123
:1002900005C02196C017D10788F380E0DF91CF9188
:1002A0001F910F91FF90EF90DF90CF900895CF9224
:1002B000DF92EF92FF920F931F93CF93DF936C0126
:1002C0007B018A01C0E0D0E00BC0B7016C0F7D1F3D
:1002D000CE018C0D9D1D0E94CD00811105C021967F
:1002E000C017D10790F380E0DF91CF911F910F915C
:1002F000FF90EF90DF90CF900895662399F0DC0196
:10030000ED91FC91119721E030E0A90112960C903B
:1003100002C0440F551F0A94E2F7CA019081892B4D
:1003200080830895DC01ED91FC91119721E030E08C
:10033000A90112960C9002C0440F551F0A94E2F7CF
:10034000CA0180959081892380830895FC013081C2
:100350002181613099F018F06230F1F0089581E068
:1003600090E0028002C0880F991F0A94E2F7E32F01
:10037000F22F8095929189238083089581E090E007
:10038000028002C0880F991F0A94E2F7E32FF22F30
:100390009291892B8083089581E090E0AC010280E6
:1003A00002C0440F551F0A94E2F7A32FB22F4095C5
:1003B0002E9142234C93A081B181028002C0880F0C
:1003C000991F0A94E2F780959C9189238C93089554
:1003D000DC01ED91FC91119721E030E0A90112962A
:1003E0000C9002C0440F551F0A94E2F732974083E5
:1003F00008951F920F920FB60F9211248F93809140
:10040000AD0086FF04C081E08093C00103C081E09D
:100410008093C0018F910F900FBE0F901F90189581
:100420001F920F920FB60F9211248F939F93EF9309
:10043000FF938091B900887F90E0909302018093B0
:1004400001018091010190910201883A910531F1F9
:100450003CF48038910559F0803A9105C9F042C0CA
:10046000883B910561F1803C9105D1F13BC08091C1
:10047000F301E091F401F091F501E80FF11D809195
:10048000BB0080838091F3018F5F8093F3012AC0CA
:1004900081E08093C1011092F30124C08091F301A7
:1004A000E091F401F091F501E80FF11D8081809356
:1004B000BB008091F3018F5F8093F30113C08091A3
:1004C000F301E091F401F091F501E80FF11D808155
:1004D0008093BB008091F3018F5F8093F30102C092
:1004E0001092F3018091C201882329F0ECEBF0E037
:1004F000808180688083FF91EF919F918F910F9011
:100500000FBE0F901F90189585EA8093DC0080E065
:1005100090E005C00196803426E0920748F42091CF
:1005200003013091040128303105A1F780E00895DE
:1005300081E0089585E98093DC00089585EA809341
:10054000DC0080E090E005C00196803426E0920750
:1005500048F4209103013091040120313105A1F7C5
:1005600080E0089581E0089585E88093DC0080E0D4
:1005700090E005C00196803426E0920748F420916F
:1005800003013091040128313105A1F780E008957D
:1005900081E0089585E88093DC0080E090E005C06C
:1005A0000196803426E0920748F4209103013091AF
:1005B000040128323105A1F780E0089581E0089513
:1005C00085E88093DC0080E090E005C001968034EF
:1005D00026E0920748F42091030130910401203471
:1005E0003105A1F780E0089581E008958823A1F006
:1005F00085EC8093DC0080E090E005C001968034BB
:1006000026E09207E8F4209103013091040120359F
:100610003105A1F780E0089585E88093DC0080E053
:1006200090E005C00196803426E0920758F42091AE
:1006300003013091040128353105A1F780E00895C8
:1006400081E0089581E008951F920F920FB60F92F6
:1006500011248F939F93EF93FF938091D900887F0C
:1006600090E09093040180930301809103019091A5
:100670000401883A910531F13CF48038910559F034
:10068000803A9105C9F042C0883B910561F1803CF8
:100690009105D1F13BC08091F301E091F401F0911B
:1006A000F501E80FF11D8091DB0080838091F3015B
:1006B0008F5F8093F3012AC081E08093C301109281
:1006C000F30124C08091F301E091F401F091F50170
:1006D000E80FF11D80818093DB008091F3018F5F33
:1006E0008093F30113C08091F301E091F401F09144
:1006F000F501E80FF11D80818093DB008091F3010B
:100700008F5F8093F30102C01092F3018091C401C6
:10071000882329F0ECEDF0E0808180688083FF91F0
:10072000EF919F918F910F900FBE0F901F90189592
:10073000CF92DF92EF92FF920F931F93CF93D82E19
:10074000C62E7A0189010E948402C82F882321F0D5
:100750000E949A028C2F5FC08D2D880F8093DB0042
:100760000E94B402C82F882321F00E949A028C2F85
:1007700052C0C092DB000E94CA02C82F882321F019
:100780000E949A028C2F47C00E949E02C82F882385
:1007900021F00E949A028C2F3EC08D2D90E0880F90
:1007A000991F81608093DB000E94E002C82F88239C
:1007B000C1F00E949A028C2F2EC081E00E94F602A6
:1007C000C82F882321F00E949A028C2F24C0F701A1
:1007D000EC0DFD1D8091DB0080838FEFC81AD80AD5
:1007E00002C0C12CD12CC8010197C816D90628F324
:1007F00080E00E94F602C82F882321F00E949A020E
:100800008C2F09C0F701EC0DFD1D8091DB0080836A
:100810000E949A028C2FCF911F910F91FF90EF9021
:10082000DF90CF900895CF92DF92EF92FF920F93D7
:100830001F93CF93182F062F6A0179010E9484021B
:10084000C82F882321F00E949A028C2F31C0110FEB
:100850001093DB000E94B402C82F882321F00E946D
:100860009A028C2F25C00093DB000E94CA02C82F79
:100870008823B1F00E949A028C2F1AC0F601E00F73
:10088000F11F80818093DB000E94CA02C82F882359
:1008900021F00E949A028C2F0BC00F5F1F4F02C0E5
:1008A00000E010E00E151F0548F30E949A028C2FFD
:1008B000CF911F910F91FF90EF90DF90CF9008950F
:1008C0009B01AC011092C40160E074E284EF90E0FF
:1008D0000E94F708DA01C9014097A109B109B6954C
:1008E000A795979587958093D80085E08093DC0045
:1008F000089510920F0180910E019FEF90930E01C9
:1009000008951F920F920FB60F9211248F939F9309
:100910008091C6008093F6018C3C31F091E0909379
:100920000F0180930E0103C081E08093C5019F9168
:100930008F910F900FBE0F901F9018951F920F92DE
:100940000FB60F9211248F9381E0809310018F9145
:100950000F900FBE0F901F9018951092C10010922B
:10096000C000442339F0E0ECF0E0208122602083D5
:10097000A8E001C0A0E1B0E09B01AC010E94190910
:100980009B01AC0160E074E284EF90E00E94F70804
:10099000BA01A9014150510961097109DB01CA017C
:1009A00088279F70AA27BB27892F9A2FAB2FBB2799
:1009B0008093C5004093C400E1ECF0E08081886D35
:1009C000808386E88093C200089590911001992356
:1009D000E1F3109210018093C6000895EF92FF9208
:1009E0000F931F93CF93DF937C018B011092C5016E
:1009F000C0E0D0E007C0F701EC0FFD1F80810E942E
:100A0000E5042196C017D107B0F38091C501882372
:100A1000E1F3DF91CF911F910F91FF90EF90089537
:100A2000EF92FF920F931F93CF93DF937C018B0183
:100A3000C0E0D0E007C0F701EC0FFD1F80810E94ED
:100A4000E5042196C017D107B0F32FE788E391E0C2
:100A5000215080409040E1F700C00000DF91CF912D
:100A60001F910F91FF90EF9008950F931F93CF93D5
:100A7000DF93CDB7DEB760970FB6F894DEBF0FBE39
:100A8000CDBF41E060E875E280E090E00E94AD04F7
:100A900062E070E08CE091E00E9410058FEB9DE534
:100AA0000197F1F700C0000041E060E874E281E0E6
:100AB00090E00E94AD0462E070E08AE091E00E9464
:100AC0001005EFE9FFE03197F1F700C0000062E0A8
:100AD00070E088E091E00E9410058FE39CE90197A7
:100AE000F1F700C000009FEFE5EBF5E39150E04027
:100AF000F040E1F700C0000084EF0E94E5042FEF12
:100B000081EE94E0215080409040E1F700C0000069
:100B10008E010F5F1F4F80E1F80111928A95E9F76E
:100B200087EC898381E08A838EE18D8383E08F83E4
:100B300067E070E0C8010E94EE048DE78B8367E0F8
:100B400070E0C8010E94EE04FFEF21EE84E0F15056
:100B500020408040E1F700C0000063E070E085E0E5
:100B600091E00E94EE04EFE3FCE93197F1F700C059
:100B7000000060960FB6F894DEBF0FBECDBFDF91C8
:100B8000CF911F910F91089562E070E088E091E0AD
:100B90000E9410058FE39CE90197F1F700C0000067
:100BA0000895BF92CF92DF92EF92FF920F931F931F
:100BB000CF93DF93CDB7DEB727970FB6F894DEBF9C
:100BC0000FBECDBFD82EC62E7A01B22E1092C5010F
:100BD0008BEE0E94E5048C2D0E94E5048D2D0E9471
:100BE000E50400E010E0F701E00FF11F80810E94B2
:100BF000E5040F5F1F4FF701E00FF11F80818111A6
:100C0000F2CF80E20E94E50480E00E94E50480913A
:100C1000C5018823E1F382E0B81217C087EC89830D
:100C2000BA82CB82DC82F70101900020E9F731978C
:100C3000EE19FF09ED8386E08E8380E18F8367E004
:100C400070E0CE0101960E94EE0427960FB6F8944C
:100C5000DEBF0FBECDBFDF91CF911F910F91FF90EF
:100C6000EF90DF90CF90BF900895EF92FF920F9397
:100C70001F93CF93DF93CDB7DEB72A970FB6F894C3
:100C8000DEBF0FBECDBFE62EF42E022F9DEF99835F
:100C90009CE39A838B8385E08C8381E08D83122F84
:100CA0001BC0802F8E0D811B8A83F11638F08FEFC9
:100CB0008E838F83888789878A8707C080E88E83A1
:100CC0001F821886198681E08A876AE070E0CE016B
:100CD00001960E94EE0411501111E3CF8FEF8E8325
:100CE0008F83888789878A876AE070E0CE010196C2
:100CF0000E94EE042A960FB6F894DEBF0FBECDBF59
:100D0000DF91CF911F910F91FF90EF90089560E8D0
:100D10007AE186E090E00E94600461E083E291E085
:100D20000E94A60161E083E291E00E947D0161E002
:100D300086E291E00E94A60161E086E291E00E94D5
:100D40007D0161E08AE191E00E94A60161E08AE113
:100D500091E00E947D0161E08DE191E00E94A60199
:100D600061E08DE191E00E947D0161E081E191E02F
:100D70000E94A60161E081E191E00E947D0161E0B5
:100D800084E191E00E94A60161E084E191E00E948B
:100D90007D0161E087E191E00E94A60161E087E1C9
:100DA00091E00E947D0144E050E066EC71E080E05B
:100DB00090E00E945701789489E291E090930F02AD
:100DC00080930E022FEF39E688E1215030408040B9
:100DD000E1F700C000000E94350520E047E351E044
:100DE00063E08BE40E94D10587E191E00E94E80175
:100DF0000E9479048130A1F49091F201911107C011
:100E00002091EA01233018F42F5F2093EA019130FA
:100E100039F49091EA01953018F49F5F9093EA01BC
:100E2000823039F49091EA01992319F0915090930E
:100E3000EA01833009F057C08091F20181110FC09F
:100E40008091EA01833059F481E08093F20110929D
:100E5000EA011092ED011092EC011092EB018091E9
:100E6000F201813009F03FC08091EA01813031F414
:100E70002091ED0191E092279093ED01823031F4C1
:100E80002091EC0191E092279093EC01833031F4B2
:100E90002091EB0191E092279093EB018430A9F42B
:100EA000E6ECF1E08091F0019091F1019183808373
:100EB0008091EE019091EF019383828344E050E0B2
:100EC000BF0180E090E00E9430018091EA0185300E
:100ED00051F41092F2011092EA011092ED01109279
:100EE000EC011092EB0180910A0290910B020AE052
:100EF00010E0B8010E94E308F62EE72ED82EC92E86
:100F00009F938F937F936F93C3E4D1E0DF93CF934D
:100F10008FEF91E09F938F930E944709CF92DF92CA
:100F2000EF92FF928CE491E09F938F938AED91E092
:100F30009F938F930E944709809108029091090224
:100F4000B8010E94E3089F938F937F936F93DF9381
:100F5000CF9387EF91E09F938F930E9447099091E1
:100F6000070281E08927809307022DB73EB7285EEC
:100F70003F4F0FB6F8943EBF0FBE2DBF882399F1A7
:100F800045E060E088E40E9488009093F10180933E
:100F9000F0012091C6013091C701821B930B12F41E
:100FA00080E090E090930B0280930A0220E042E5FB
:100FB00051E066E083E00E94D10520E04FEF51E070
:100FC00068E188E00E94D10580910A0290910B02AD
:100FD00063E070E00E94E308462F20E56CE288E0C1
:100FE0000E94350632C045E063E088E40E94880034
:100FF0009093EF018093EE012091C8013091C901D7
:10100000821B930B12F480E090E09093090280938E
:10101000080220E04AE551E066E088EB0E94D10535
:1010200020E047EF51E068E180EC0E94D10580911B
:1010300008029091090263E070E00E94E308462FE5
:1010400020E56CE280EC0E9435068091F20181116E
:1010500035C08091EA01813011F422E001C020E026
:1010600042E651E068E28BE40E94D1058091EA01FA
:10107000823011F422E001C020E04CE651E069E347
:101080008BE40E94D1058091EA01833011F422E0C3
:1010900001C020E047E751E06AE48BE40E94D105FB
:1010A00020E041E851E06BE58BE40E94D10520E0AF
:1010B00041E851E06CE68BE40E94D1058091F20199
:1010C000813009F07DC08091ED011F928F938BE8F4
:1010D00091E09F938F938AEC91E09F938F930E946E
:1010E00047098091EA010F900F900F900F900F9099
:1010F0000F90813011F422E001C020E04AEC51E071
:1011000068E28BE40E94D1058091EC011F928F93DD
:1011100086E991E09F938F938AEC91E09F938F9360
:101120000E9447098091EA010F900F900F900F9055
:101130000F900F90823011F422E001C020E04AECC1
:1011400051E069E38BE40E94D1058091EB011F928D
:101150008F9381EA91E09F938F938AEC91E09F9324
:101160008F930E9447098091EA010F900F900F9092
:101170000F900F900F90833011F422E001C020E017
:101180004AEC51E06AE48BE40E94D1058091EA01C7
:10119000843011F422E001C020E04CEA51E06BE51C
:1011A0008BE40E94D1058091EA01853011F422E0A0
:1011B00001C020E046EB51E06CE68BE40E94D105D3
:1011C0000E94C40511CE97FB072E16F4009407D099
:1011D00077FD09D00E94240907FC05D03EF49095C4
:1011E00081959F4F0895709561957F4F0895A1E275
:1011F0001A2EAA1BBB1BFD010DC0AA1FBB1FEE1F91
:10120000FF1FA217B307E407F50720F0A21BB30BDB
:10121000E40BF50B661F771F881F991F1A9469F757
:1012200060957095809590959B01AC01BD01CF01B3
:1012300008950E943809A59F900DB49F900DA49F1A
:10124000800D911D11240895AA1BBB1B51E107C0FD
:10125000AA1FBB1FA617B70710F0A61BB70B881F46
:10126000991F5A95A9F780959095BC01CD010895D5
:10127000A29FB001B39FC001A39F700D811D1124D7
:10128000911DB29F700D811D1124911D0895AEE036
:10129000B0E0EDE4F9E00C94080C0D891E8986E0BD
:1012A0008C831A8309838FEF9FE79E838D83AE0122
:1012B000475E5F4F6F89788DCE0101960E94690964
:1012C000EF81F885E00FF11F10822E96E4E00C9478
:1012D000240CABE0B0E0EFE6F9E00C94FA0B6C0103
:1012E0007B018A01FC0117821682838181FFCCC1B8
:1012F000CE0101963C01F6019381F70193FD8591A2
:1013000093FF81917F01882309F4BAC1853239F4B2
:1013100093FD859193FF81917F01853229F4B60178
:1013200090E00E94600BE7CF912C212C312CFFE143
:10133000F315D8F08B3279F038F4803279F08332BB
:10134000A1F4232D20611DC08D3261F0803369F43A
:10135000232D216016C0832D8260382EE32DE4609A
:101360003E2E2AC0F32DF8601DC037FC2DC020EDA5
:10137000280F2A3040F08E32B9F436FC81C1232D7B
:101380002064322E19C036FE06C08AE0989E200DD9
:101390001124922E11C0EAE02E9E200D1124222E3F
:1013A000F32DF0623F2E08C08C3621F4832D806827
:1013B000382E02C0883641F4F70193FD859193FFE2
:1013C00081917F018111B3CF982F9F7D95549330E8
:1013D00028F40C5F1F4F9FE399830DC0833631F0D3
:1013E000833771F0833509F059C021C0F80180813D
:1013F00089830E5F1F4F88248394912C530113C05F
:101400002801F2E04F0E511CF801A080B18036FE99
:1014100003C0692D70E002C06FEF7FEFC5010E942D
:10142000550B4C018201F32DFF773F2E16C028018A
:1014300022E0420E511CF801A080B18036FE03C0AC
:10144000692D70E002C06FEF7FEFC5010E944A0B6B
:101450004C01F32DF0683F2E820133FC1BC0822D1E
:1014600090E088169906B0F4B60180E290E00E9400
:10147000600B2A94F4CFF50137FC859137FE8191FA
:101480005F01B60190E00E94600B21102A9421E0D8
:10149000821A91088114910471F7E8C0843611F022
:1014A000893641F5F80137FE07C06081718182817C
:1014B00093810C5F1F4F08C060817181072E000C63
:1014C000880B990B0E5F1F4FF32DFF763F2E97FF72
:1014D00009C090958095709561957F4F8F4F9F4F74
:1014E000F0683F2E2AE030E0A3010E949C0B882E7A
:1014F000861845C0853731F4232D2F7EB22E2AE081
:1015000030E025C0932D997FB92E8F36C1F018F4A5
:10151000883579F0B5C0803719F0883721F0B0C030
:10152000E92FE061BE2EB4FE0DC0FB2DF460BF2E8E
:1015300009C034FE0AC0292F2660B22E06C028E05A
:1015400030E005C020E130E002C020E132E0F801E7
:10155000B7FE07C060817181828193810C5F1F4F4C
:1015600006C06081718180E090E00E5F1F4FA30193
:101570000E949C0B882E8618FB2DFF773F2E36FE8F
:101580000DC0232D2E7FA22E891458F434FE0BC0DB
:1015900032FC09C0832D8E7EA82E05C0B82CA32C4A
:1015A00003C0B82C01C0B92CA4FE0FC0FE01E80D89
:1015B000F11D8081803321F49A2D997EA92E09C0D6
:1015C000A2FE06C0B394B39404C08A2D867809F0B5
:1015D000B394A3FC11C0A0FE06C0B21488F4280C7A
:1015E000922C9B180EC0B21460F4B60180E290E019
:1015F0000E94600BB394F7CFB21418F42B1802C0FA
:10160000982C212CA4FE10C0B60180E390E00E942B
:10161000600BA2FE17C0A1FC03C088E790E002C0E7
:1016200088E590E0B6010CC08A2D867859F0A1FEBD
:1016300002C08BE201C080E2A7FC8DE2B60190E01F
:101640000E94600B891438F4B60180E390E00E9498
:10165000600B9A94F7CF8A94F301E80DF11D808115
:10166000B60190E00E94600B8110F5CF222009F4B2
:1016700042CEB60180E290E00E94600B2A94F6CF41
:10168000F6018681978102C08FEF9FEF2B96E2E1F2
:101690000C94160CFC010590615070400110D8F7B5
:1016A000809590958E0F9F1F0895FC0161507040AA
:1016B00001900110D8F7809590958E0F9F1F089587
:1016C0000F931F93CF93DF93FB01238121FD03C071
:1016D0008FEF9FEF2CC022FF16C0468157812481D7
:1016E00035814217530744F4A081B1819D012F5FDA
:1016F0003F4F318320838C93268137812F5F3F4F6B
:101700003783268314C08B01EC01FB010084F18533
:10171000E02D0995892BE1F6D80116968D919C91C3
:101720001797019617969C938E931697CE01DF918B
:10173000CF911F910F910895FA01AA27283051F1F6
:10174000203181F1E8946F936E7F6E5F7F4F8F4FF2
:101750009F4FAF4FB1E03ED0B4E03CD0670F781F51
:10176000891F9A1FA11D680F791F8A1F911DA11D36
:101770006A0F711D811D911DA11D20D009F468946F
:101780003F912AE0269F11243019305D3193DEF617
:10179000CF010895462F4770405D4193B3E00FD0CD
:1017A000C9F7F6CF462F4F70405D4A3318F0495DB8
:1017B00031FD4052419302D0A9F7EACFB4E0A6959B
:1017C0009795879577956795BA95C9F700976105BD
:1017D000710508959B01AC010A2E06945795479513
:1017E00037952795BA95C9F7620F731F841F951F08
:1017F000A01D08952F923F924F925F926F927F9219
:101800008F929F92AF92BF92CF92DF92EF92FF9210
:101810000F931F93CF93DF93CDB7DEB7CA1BDB0BBC
:101820000FB6F894DEBF0FBECDBF09942A88398861
:1018300048885F846E847D848C849B84AA84B98468
:10184000C884DF80EE80FD800C811B81AA81B98174
:10185000CE0FD11D0FB6F894DEBF0FBECDBFED0188
:061860000895F894FFCF8B
:1018660001F800F800CB0E01B501E632E806FF01EB
:10187600012800052800042800032800022800018A
:101886000000002800002E000300000002000000F7
:1018960000E5040000000053572076657220302EC4
:1018A600316100253032642E25644C0025642E25D6
:1018B60064004E4557204F494C004F4C44204F4939
:1018C6004C0052756E206379636C6500456D7074CB
:1018D600792074616E6B005365747570202020202A
:1018E600002020202020202020200056616C7665D4
:1018F60020312025640056616C76652032202564EF
:101906000050756D7020202020256400534554201A
:101916003E303C2020004241434B20202020000046
:00000001FF
