S01900004F696C4368616E67657253575F56302E312E7372656341
S11300000C945A000C9477000C9477000C947700AD
S11300100C9477000C9477000C9477000C94770080
S11300200C9477000C9477000C9477000C94770070
S11300300C9477000C9477000C9477000C94770060
S11300400C9477000C9477000C9481040C94770042
S11300500C949E040C9479000C9477000C94770013
S11300600C9410020C9477000C9477000C94770095
S11300700C9477000C9477000C9477000C94770020
S11300800C9477000C9477000C9477000C94770010
S11300900C9477000C9477000C9477000C94F9017D
S11300A00C9424030C9477000C9477000C94770040
S11300B00C94770011241FBECFEFD8E0DEBFCDBF74
S11300C011E0A0E0B1E0ECEAF9E102C005900D9284
S11300D0A43DB107D9F722E0A4EDB1E001C01D921F
S11300E0A832B207E1F70E9487060C94D40C0C9452
S11300F000001F920F920FB60F9211248F9381E08C
S1130100809300018F910F900FBE0F901F90189550
S11301101F93CF93DF9300D000D0CDB7DEB7182F55
S1130120862F642F70E0762F6627770FAB0151601E
S1130130682F70E0762F66277295707F642B752B7D
S113014070686A83798322E030E0AE014F5F5F4FCD
S113015061E0812F0E9413042FEF83EC99E021507A
S113016080409040E1F700C0000022E030E0AE01A2
S11301704D5F5F4F60E0812F0E9498038B8190E078
S1130180982F88272C81820F911D0F900F900F902C
S11301900F90DF91CF911F9108959C01211584E068
S11301A0380770F49FB3892F827091FDFBCF32BD65
S11301B021BD9FB391609FBB90B5FB0190830895CF
S11301C082E008959C01211584E0380778F49FB3F8
S11301D0892F827091FDFBCF32BD21BD60BD9FB3DD
S11301E094609FBB9FB392609FBB089582E0089583
S11301F0FF920F931F93CF93DF931F92CDB7DEB778
S1130200811524E0920700F5F62E8C011982BE01B7
S11302106F5F7F4F0E94CD0081111BC089818F15B4
S1130220A9F06F2DC8010E94E200811112C0BE0125
S11302306F5F7F4FC8010E94CD0081110AC0898180
S1130240F81631F081E005C082E003C080E001C00F
S113025080E00F90DF91CF911F910F91FF9008954F
S1130260CF92DF92EF92FF920F931F93CF93DF937E
S11302706C017B018A01C0E0D0E00CC0F701EC0FF7
S1130280FD1F6081CE018C0D9D1D0E94F80081111F
S113029005C02196C017D10788F380E0DF91CF9184
S11302A01F910F91FF90EF90DF90CF900895CF9220
S11302B0DF92EF92FF920F931F93CF93DF936C0122
S11302C07B018A01C0E0D0E00BC0B7016C0F7D1F39
S11302D0CE018C0D9D1D0E94CD00811105C021967B
S11302E0C017D10790F380E0DF91CF911F910F9158
S11302F0FF90EF90DF90CF900895662399F0DC0192
S1130300ED91FC91119721E030E0A90112960C9037
S113031002C0440F551F0A94E2F7CA019081892B49
S113032080830895DC01ED91FC91119721E030E088
S1130330A90112960C9002C0440F551F0A94E2F7CB
S1130340CA0180959081892380830895FC013081BE
S11303502181613099F018F06230F1F0089581E064
S113036090E0028002C0880F991F0A94E2F7E32FFD
S1130370F22F8095929189238083089581E090E003
S1130380028002C0880F991F0A94E2F7E32FF22F2C
S11303909291892B8083089581E090E0AC010280E2
S11303A002C0440F551F0A94E2F7A32FB22F4095C1
S11303B02E9142234C93A081B181028002C0880F08
S11303C0991F0A94E2F780959C9189238C93089550
S11303D0DC01ED91FC91119721E030E0A901129626
S11303E00C9002C0440F551F0A94E2F732974083E1
S11303F008951F920F920FB60F9211248F9380913C
S1130400AD0086FF04C081E08093D40103C081E085
S11304108093D4018F910F900FBE0F901F90189569
S11304201F920F920FB60F9211248F939F93EF9305
S1130430FF938091B900887F90E0909302018093AC
S113044001018091010190910201883A910531F1F5
S11304503CF48038910559F0803A9105C9F042C0C6
S1130460883B910561F1803C9105D1F13BC08091BD
S11304700902E0910A02F0910B02E80FF11D80914C
S1130480BB008083809109028F5F809309022AC098
S113049081E08093D5011092090224C08091090261
S11304A0E0910A02F0910B02E80FF11D8081809324
S11304B0BB00809109028F5F8093090213C0809171
S11304C00902E0910A02F0910B02E80FF11D80810C
S11304D08093BB00809109028F5F8093090202C060
S11304E0109209028091D601882329F0ECEBF0E008
S11304F0808180688083FF91EF919F918F910F900D
S11305000FBE0F901F90189585EA8093DC0080E061
S113051090E005C00196803426E0920748F42091CB
S113052003013091040128303105A1F780E00895DA
S113053081E0089585E98093DC00089585EA80933D
S1130540DC0080E090E005C00196803426E092074C
S113055048F4209103013091040120313105A1F7C1
S113056080E0089581E0089585E88093DC0080E0D0
S113057090E005C00196803426E0920748F420916B
S113058003013091040128313105A1F780E0089579
S113059081E0089585E88093DC0080E090E005C068
S11305A00196803426E0920748F4209103013091AB
S11305B0040128323105A1F780E0089581E008950F
S11305C085E88093DC0080E090E005C001968034EB
S11305D026E0920748F4209103013091040120346D
S11305E03105A1F780E0089581E008958823A1F002
S11305F085EC8093DC0080E090E005C001968034B7
S113060026E09207E8F4209103013091040120359B
S11306103105A1F780E0089585E88093DC0080E04F
S113062090E005C00196803426E0920758F42091AA
S113063003013091040128353105A1F780E00895C4
S113064081E0089581E008951F920F920FB60F92F2
S113065011248F939F93EF93FF938091D900887F08
S113066090E09093040180930301809103019091A1
S11306700401883A910531F13CF48038910559F030
S1130680803A9105C9F042C0883B910561F1803CF4
S11306909105D1F13BC080910902E0910A02F091E9
S11306A00B02E80FF11D8091DB0080838091090229
S11306B08F5F809309022AC081E08093D701109252
S11306C0090224C080910902E0910A02F0910B0210
S11306D0E80FF11D80818093DB00809109028F5F18
S11306E08093090213C080910902E0910A02F091FB
S11306F00B02E80FF11D80818093DB0080910902D9
S11307008F5F8093090202C0109209028091D80180
S1130710882329F0ECEDF0E0808180688083FF91EC
S1130720EF919F918F910F900FBE0F901F9018958E
S1130730CF92DF92EF92FF920F931F93CF93D82E15
S1130740C62E7A0189010E948402C82F882321F0D1
S11307500E949A028C2F5FC08D2D880F8093DB003E
S11307600E94B402C82F882321F00E949A028C2F81
S113077052C0C092DB000E94CA02C82F882321F015
S11307800E949A028C2F47C00E949E02C82F882381
S113079021F00E949A028C2F3EC08D2D90E0880F8C
S11307A0991F81608093DB000E94E002C82F882398
S11307B0C1F00E949A028C2F2EC081E00E94F602A2
S11307C0C82F882321F00E949A028C2F24C0F7019D
S11307D0EC0DFD1D8091DB0080838FEFC81AD80AD1
S11307E002C0C12CD12CC8010197C816D90628F320
S11307F080E00E94F602C82F882321F00E949A020A
S11308008C2F09C0F701EC0DFD1D8091DB00808366
S11308100E949A028C2FCF911F910F91FF90EF901D
S1130820DF90CF900895CF92DF92EF92FF920F93D3
S11308301F93CF93182F062F6A0179010E94840217
S1130840C82F882321F00E949A028C2F31C0110FE7
S11308501093DB000E94B402C82F882321F00E9469
S11308609A028C2F25C00093DB000E94CA02C82F75
S11308708823B1F00E949A028C2F1AC0F601E00F6F
S1130880F11F80818093DB000E94CA02C82F882355
S113089021F00E949A028C2F0BC00F5F1F4F02C0E1
S11308A000E010E00E151F0548F30E949A028C2FF9
S11308B0CF911F910F91FF90EF90DF90CF9008950B
S11308C09B01AC011092D80160E074E284EF90E0E7
S11308D00E949A09DA01C9014097A109B109B695A4
S11308E0A795979587958093D80085E08093DC0041
S11308F0089510920F0180910E019FEF90930E01C5
S113090008951F920F920FB60F9211248F939F9305
S11309108091C60080930C028C3C31F091E090935E
S11309200F0180930E0103C081E08093D9019F9150
S11309308F910F900FBE0F901F9018951F920F92DA
S11309400FB60F9211248F9381E0809310018F9141
S11309500F900FBE0F901F9018951092C100109227
S1130960C000442339F0E0ECF0E0208122602083D1
S1130970A8E001C0A0E1B0E09B01AC010E94BC0969
S11309809B01AC0160E074E284EF90E00E949A095C
S1130990BA01A9014150510961097109DB01CA0178
S11309A088279F70AA27BB27892F9A2FAB2FBB2795
S11309B08093C5004093C400E1ECF0E08081886D31
S11309C0808386E88093C200089590911001992352
S11309D0E1F3109210018093C6000895EF92FF9204
S11309E00F931F93CF93DF937C018B011092D90156
S11309F0C0E0D0E007C0F701EC0FFD1F80810E942A
S1130A00E5042196C017D107B0F38091D90188235A
S1130A10E1F3DF91CF911F910F91FF90EF90089533
S1130A20EF92FF920F931F93CF93DF937C018B017F
S1130A30C0E0D0E007C0F701EC0FFD1F80810E94E9
S1130A40E5042196C017D107B0F32FE788E391E0BE
S1130A50215080409040E1F700C00000DF91CF9129
S1130A601F910F91FF90EF9008950F931F93CF93D1
S1130A70DF93CDB7DEB760970FB6F894DEBF0FBE35
S1130A80CDBF41E060E875E280E090E00E94AD04F3
S1130A9062E070E08CE091E00E9410058FEB9DE530
S1130AA00197F1F700C0000041E060E874E281E0E2
S1130AB090E00E94AD0462E070E08AE091E00E9460
S1130AC01005EFE9FFE03197F1F700C0000062E0A4
S1130AD070E088E091E00E9410058FE39CE90197A3
S1130AE0F1F700C000009FEFE5EBF5E39150E04023
S1130AF0F040E1F700C0000084EF0E94E5042FEF0E
S1130B0081EE94E0215080409040E1F700C0000065
S1130B108E010F5F1F4F80E1F80111928A95E9F76A
S1130B2087EC898381E08A838EE18D8383E08F83E0
S1130B3067E070E0C8010E94EE048DE78B8367E0F4
S1130B4070E0C8010E94EE04FFEF21EE84E0F15052
S1130B5020408040E1F700C0000063E070E085E0E1
S1130B6091E00E94EE04EFE3FCE93197F1F700C055
S1130B70000060960FB6F894DEBF0FBECDBFDF91C4
S1130B80CF911F910F91089562E070E088E091E0A9
S1130B900E9410058FE39CE90197F1F700C0000063
S1130BA00895BF92CF92DF92EF92FF920F931F931B
S1130BB0CF93DF93CDB7DEB727970FB6F894DEBF98
S1130BC00FBECDBFD82EC62E7A01B22E1092D901F7
S1130BD08BEE0E94E5048C2D0E94E5048D2D0E946D
S1130BE0E50400E010E0F701E00FF11F80810E94AE
S1130BF0E5040F5F1F4FF701E00FF11F80818111A2
S1130C00F2CF80E20E94E50480E00E94E504809136
S1130C10D9018823E1F382E0B81217C087EC8983F5
S1130C20BA82CB82DC82F70101900020E9F7319788
S1130C30EE19FF09ED8386E08E8380E18F8367E000
S1130C4070E0CE0101960E94EE0427960FB6F89448
S1130C50DEBF0FBECDBFDF91CF911F910F91FF90EB
S1130C60EF90DF90CF90BF900895EF92FF920F9393
S1130C701F93CF93DF93CDB7DEB72A970FB6F894BF
S1130C80DEBF0FBECDBFE62EF42E022F9DEF99835B
S1130C909CE39A838B8385E08C8381E08D83122F80
S1130CA01BC0802F8E0D811B8A83F11638F08FEFC5
S1130CB08E838F83888789878A8707C080E88E839D
S1130CC01F821886198681E08A876AE070E0CE0167
S1130CD001960E94EE0411501111E3CF8FEF8E8321
S1130CE08F83888789878A876AE070E0CE010196BE
S1130CF00E94EE042A960FB6F894DEBF0FBECDBF55
S1130D00DF91CF911F910F91FF90EF90089561E0D3
S1130D1087E191E00E94A60161E087E191E00E94F1
S1130D207D0161E084E191E00E94A60161E084E13B
S1130D3091E00E947D0161E081E191E00E94A601C1
S1130D4061E081E191E00E947D0160E87AE186E062
S1130D5090E00E94600461E08CE291E00E94A601B0
S1130D6061E08CE291E00E947D0161E08FE291E01C
S1130D700E94A60161E08FE291E00E947D0161E0A2
S1130D8083E291E00E94A60161E083E291E00E9487
S1130D907D0161E086E291E00E94A60161E086E2C5
S1130DA091E00E947D0161E08AE191E00E94A60148
S1130DB061E08AE191E00E947D0161E08DE191E0D2
S1130DC00E94A60161E08DE191E00E947D0161E055
S1130DD080E291E00E94A60161E080E291E00E943D
S1130DE07D0144E050E06AED71E080E090E00E9413
S1130DF05701789482E391E0909325028093240232
S1130E002FEF39E688E1215030408040E1F700C0FF
S1130E1000000E94350520E040E451E063E08BE4EB
S1130E200E94D10580E291E00E94E8010E947904C9
S1130E308130A1F490910802911107C02091FE0124
S1130E40243018F42F5F2093FE01913039F49091EF
S1130E50FE01953018F49F5F9093FE01823039F4BF
S1130E609091FE01992319F091509093FE018330E3
S1130E7009F071C080910802811129C08091FE019E
S1130E80813041F42091000291E092279093000276
S1130E901092FF01823041F42091FF0191E09227EA
S1130EA09093FF0110920002833021F41092FF010D
S1130EB010920002843059F481E080930802109269
S1130EC0FE0110920302109202021092010280911C
S1130ED00802813009F03FC08091FE01813031F475
S1130EE02091030291E0922790930302823031F41F
S1130EF02091020291E0922790930202833031F410
S1130F002091010291E09227909301028430A9F488
S1130F10EAEDF1E0809106029091070291838083CB
S1130F2080910402909105029383828344E050E00F
S1130F30BF0180E090E00E9430018091FE01853085
S1130F4051F4109208021092FE01109203021092C2
S1130F5002021092010280912002909121020AE083
S1130F6010E0B8010E948609F62EE72ED82EC92E6D
S1130F709F938F937F936F93CCE4D1E0DF93CF93D0
S1130F8085E192E09F938F930E94EA09CF92DF92CA
S1130F90EF92FF9285E591E09F938F938EEE91E01F
S1130FA09F938F930E94EA0980911E0290911F02E1
S1130FB0B8010E9486099F938F937F936F93DF9369
S1130FC0CF938DE092E09F938F930E94EA099091D2
S1130FD01D0281E0892780931D022DB73EB7285E4C
S1130FE03F4F0FB6F8943EBF0FBE2DBF882399F133
S1130FF045E060E088E40E948800909307028093B3
S113100006022091DA013091DB01821B930B12F46A
S113101080E090E0909321028093200220E04BE551
S113102051E066E083E00E94D10520E045E152E012
S113103068E188E00E94D10580912002909121020C
S113104063E070E00E948609462F20E56CE288E0A8
S11310500E94350632C045E063E088E40E948800BF
S113106090930502809304022091DC013091DD010C
S1131070821B930B12F480E090E090931F02809304
S11310801E0220E043E651E066E088EB0E94D105B1
S113109020E04DE052E068E180EC0E94D1058091AF
S11310A01E0290911F0263E070E00E948609462FA1
S11310B020E56CE280EC0E943506809108028111E3
S11310C063C0809100021F928F938BE691E09F93FF
S11310D08F938EED91E09F938F930E94EA09809104
S11310E0FE010F900F900F900F900F900F90813092
S11310F011F422E001C020E04EED51E068E28BE4FF
S11311000E94D1058091FF011F928F9386E791E0A1
S11311109F938F938EED91E09F938F930E94EA09A2
S11311208091FE010F900F900F900F900F900F90F1
S1131130823011F422E001C020E04EED51E069E379
S11311408BE40E94D1058091FE01833011F422E0EA
S113115001C020E041E851E06AE48BE40E94D1053B
S11311608091FE01843011F422E001C020E04BE8BC
S113117051E06BE58BE40E94D10520E045E951E0A4
S11311806CE68BE40E94D10580910802813009F05D
S11311907DC0809103021F928F938FE991E09F930A
S11311A08F938EED91E09F938F930E94EA09809133
S11311B0FE010F900F900F900F900F900F908130C1
S11311C011F422E001C020E04EED51E068E28BE42E
S11311D00E94D105809102021F928F938AEA91E0C6
S11311E09F938F938EED91E09F938F930E94EA09D2
S11311F08091FE010F900F900F900F900F900F9021
S1131200823011F422E001C020E04EED51E069E3A8
S11312108BE40E94D105809101021F928F9385EB8C
S113122091E09F938F938EED91E09F938F930E9413
S1131230EA098091FE010F900F900F900F900F908C
S11312400F90833011F422E001C020E04EED51E014
S11312506AE48BE40E94D1058091FE01843011F48C
S113126022E001C020E040EC51E06BE58BE40E94F9
S1131270D1058091FE01853011F422E001C020E007
S11312804AEC51E06CE68BE40E94D105809108029F
S1131290811123C080910002811104C09091FF014B
S11312A09923A9F0882339F081E080930102809387
S11312B00302109202028091FF01882371F081E001
S11312C080930102809302021092030206C01092DE
S11312D00102109203021092020260910302C1E023
S11312E06C2787E191E00E947D01609102026C27E6
S11312F084E191E00E947D01609101026C2781E10B
S113130091E00E947D010E94C4058CCD97FB072EBD
S113131016F4009407D077FD09D00E94C70907FC92
S113132005D03EF4909581959F4F089570956195F1
S11313307F4F0895A1E21A2EAA1BBB1BFD010DC00D
S1131340AA1FBB1FEE1FFF1FA217B307E407F50771
S113135020F0A21BB30BE40BF50B661F771F881F4D
S1131360991F1A9469F760957095809590959B01E3
S1131370AC01BD01CF0108950E94DB09A59F900D2A
S1131380B49F900DA49F800D911D11240895AA1B54
S1131390BB1B51E107C0AA1FBB1FA617B70710F05C
S11313A0A61BB70B881F991F5A95A9F7809590958E
S11313B0BC01CD010895A29FB001B39FC001A39FBA
S11313C0700D811D1124911DB29F700D811D11247A
S11313D0911D0895AEE0B0E0E0EFF9E00C94AB0CA1
S11313E00D891E8986E08C831A8309838FEF9FE71A
S11313F09E838D83AE01475E5F4F6F89788DCE01EA
S113140001960E940C0AEF81F885E00FF11F10820B
S11314102E96E4E00C94C70CABE0B0E0E2E1FAE015
S11314200C949D0C6C017B018A01FC0117821682CD
S1131430838181FFCCC1CE0101963C01F6019381E9
S1131440F70193FD859193FF81917F01882309F42E
S1131450BAC1853239F493FD859193FF81917F015F
S1131460853229F4B60190E00E94030CE7CF912C59
S1131470212C312CFFE1F315D8F08B3279F038F4BC
S1131480803279F08332A1F4232D20611DC08D3286
S113149061F0803369F4232D216016C0832D8260AE
S11314A0382EE32DE4603E2E2AC0F32DF8601DC0D3
S11314B037FC2DC020ED280F2A3040F08E32B9F4CD
S11314C036FC81C1232D2064322E19C036FE06C09D
S11314D08AE0989E200D1124922E11C0EAE02E9EDF
S11314E0200D1124222EF32DF0623F2E08C08C36DD
S11314F021F4832D8068382E02C0883641F4F70128
S113150093FD859193FF81917F018111B3CF982F32
S11315109F7D9554933028F40C5F1F4F9FE399836C
S11315200DC0833631F0833771F0833509F059C02B
S113153021C0F801808189830E5F1F4F8824839422
S1131540912C530113C02801F2E04F0E511CF801F5
S1131550A080B18036FE03C0692D70E002C06FEF39
S11315607FEFC5010E94F80B4C018201F32DFF7738
S11315703F2E16C0280122E0420E511CF801A08023
S1131580B18036FE03C0692D70E002C06FEF7FEFBB
S1131590C5010E94ED0B4C01F32DF0683F2E820132
S11315A033FC1BC0822D90E088169906B0F4B60176
S11315B080E290E00E94030C2A94F4CFF50137FCFA
S11315C0859137FE81915F01B60190E00E94030C82
S11315D021102A9421E0821A91088114910471F750
S11315E0E8C0843611F0893641F5F80137FE07C0AA
S11315F060817181828193810C5F1F4F08C060817B
S11316007181072E000C880B990B0E5F1F4FF32D71
S1131610FF763F2E97FF09C0909580957095619550
S11316207F4F8F4F9F4FF0683F2E2AE030E0A30199
S11316300E943F0C882E861845C0853731F4232D2F
S11316402F7EB22E2AE030E025C0932D997FB92E4B
S11316508F36C1F018F4883579F0B5C0803719F0A9
S1131660883721F0B0C0E92FE061BE2EB4FE0DC072
S1131670FB2DF460BF2E09C034FE0AC0292F26605A
S1131680B22E06C028E030E005C020E130E002C000
S113169020E132E0F801B7FE07C0608171818281E8
S11316A093810C5F1F4F06C06081718180E090E0E0
S11316B00E5F1F4FA3010E943F0C882E8618FB2D3E
S11316C0FF773F2E36FE0DC0232D2E7FA22E8914C8
S11316D058F434FE0BC032FC09C0832D8E7EA82E34
S11316E005C0B82CA32C03C0B82C01C0B92CA4FE8F
S11316F00FC0FE01E80DF11D8081803321F49A2D85
S1131700997EA92E09C0A2FE06C0B394B39404C066
S11317108A2D867809F0B394A3FC11C0A0FE06C0FC
S1131720B21488F4280C922C9B180EC0B21460F4E6
S1131730B60180E290E00E94030CB394F7CFB21498
S113174018F42B1802C0982C212CA4FE10C0B6014A
S113175080E390E00E94030CA2FE17C0A1FC03C02A
S113176088E790E002C088E590E0B6010CC08A2DBD
S1131770867859F0A1FE02C08BE201C080E2A7FC8A
S11317808DE2B60190E00E94030C891438F4B6018E
S113179080E390E00E94030C9A94F7CF8A94F301BB
S11317A0E80DF11D8081B60190E00E94030C8110C8
S11317B0F5CF222009F442CEB60180E290E00E94E7
S11317C0030C2A94F6CFF6018681978102C08FEF2D
S11317D09FEF2B96E2E10C94B90CFC01059061504B
S11317E070400110D8F7809590958E0F9F1F089533
S11317F0FC016150704001900110D8F780959095DC
S11318008E0F9F1F08950F931F93CF93DF93FB01B8
S1131810238121FD03C08FEF9FEF2CC022FF16C050
S113182046815781248135814217530744F4A081AE
S1131830B1819D012F5F3F4F318320838C9326819B
S113184037812F5F3F4F3783268314C08B01EC0110
S1131850FB010084F185E02D0995892BE1F6D8017F
S113186016968D919C911797019617969C938E933B
S11318701697CE01DF91CF911F910F910895FA0130
S1131880AA27283051F1203181F1E8946F936E7FBB
S11318906E5F7F4F8F4F9F4FAF4FB1E03ED0B4E0AC
S11318A03CD0670F781F891F9A1FA11D680F791FED
S11318B08A1F911DA11D6A0F711D811D911DA11DFE
S11318C020D009F468943F912AE0269F112430190E
S11318D0305D3193DEF6CF010895462F4770405DA9
S11318E04193B3E00FD0C9F7F6CF462F4F70405D58
S11318F04A3318F0495D31FD4052419302D0A9F7B3
S1131900EACFB4E0A6959795879577956795BA95AC
S1131910C9F700976105710508959B01AC010A2E72
S113192006945795479537952795BA95C9F7620F49
S1131930731F841F951FA01D08952F923F924F92ED
S11319405F926F927F928F929F92AF92BF92CF924B
S1131950DF92EF92FF920F931F93CF93DF93CDB754
S1131960DEB7CA1BDB0B0FB6F894DEBF0FBECDBFCC
S113197009942A88398848885F846E847D848C849D
S11319809B84AA84B984C884DF80EE80FD800C81A6
S11319901B81AA81B981CE0FD11D0FB6F894DEBF89
S10F19A00FBECDBFED010895F894FFCFF9
S11319AC01F800F800CB0E01B501E632E806FF01A0
S11319BC012B00032B00052B00062800052800042E
S11319CC2800032800022800010000002800002E33
S11319DC00030000000200000000E5040000000009
S11319EC53572076657220302E31610025303264D5
S11319FC2E25644C0025642E2564004E4557204F3B
S1131A0C494C004F4C44204F494C00526563796358
S1131A1C6C6520256400436C65616E202020256470
S1131A2C0053544F502020202020005365747570AF
S1131A3C20202020002020202020202020200056A0
S1131A4C616C766520312025640056616C766520C6
S1131A5C322025640050756D7020202020256400F0
S1131A6C534554203E303C2020004241434B20201F
S1071A7C2020000022
S9030000FC
