:100000000C945A000C9477000C9477000C947700B1
:100010000C9477000C9477000C9477000C94770084
:100020000C9477000C9477000C9477000C94770074
:100030000C9477000C9477000C9477000C94770064
:100040000C9477000C9477000C940B020C947700BE
:100050000C9428020C9479000C9477000C9477008F
:100060000C941B010C9477000C9477000C9477008F
:100070000C9477000C9477000C9477000C94770024
:100080000C9477000C9477000C9477000C94770014
:100090000C9477000C9477000C9477000C94040176
:1000A0000C948F010C9477000C9477000C947700DB
:1000B0000C94770011241FBECFEFD8E0DEBFCDBF78
:1000C00011E0A0E0B1E0EEE1F0E102C005900D9298
:1000D000A238B107D9F721E0A2E8B1E001C01D9232
:1000E000A33AB207E1F70E9404040C940D080C94A3
:1000F00000001F920F920FB60F9211248F9381E090
:10010000809300018F910F900FBE0F901F90189554
:10011000662399F0DC01ED91FC91119721E030E02C
:10012000A90112960C9002C0440F551F0A94E2F7E1
:10013000CA019081892B80830895DC01ED91FC91A7
:10014000119721E030E0A90112960C9002C0440FF3
:10015000551F0A94E2F7CA01809590818923808314
:100160000895FC0130812181613099F018F06230EE
:10017000F1F0089581E090E0028002C0880F991F9D
:100180000A94E2F7E32FF22F8095929189238083DE
:10019000089581E090E0028002C0880F991F0A94C0
:1001A000E2F7E32FF22F9291892B8083089581E06B
:1001B00090E0AC01028002C0440F551F0A94E2F7A0
:1001C000A32FB22F40952E9142234C93A081B18151
:1001D000028002C0880F991F0A94E2F780959C91D3
:1001E00089238C930895DC01ED91FC91119721E016
:1001F00030E0A90112960C9002C0440F551F0A94DA
:10020000E2F73297408308951F920F920FB60F9234
:1002100011248F938091AD0086FF04C081E080930C
:10022000820103C081E0809382018F910F900FBE05
:100230000F901F9018951F920F920FB60F921124D6
:100240008F939F93EF93FF938091B900887F90E005
:10025000909302018093010180910101909102012C
:10026000883A910531F13CF48038910559F0803A93
:100270009105C9F042C0883B910561F1803C910530
:10028000D1F13BC080919901E0919A01F0919B01DD
:10029000E80FF11D8091BB008083809199018F5FF1
:1002A000809399012AC081E0809383011092990183
:1002B00024C080919901E0919A01F0919B01E80F8F
:1002C000F11D80818093BB00809199018F5F8093A5
:1002D000990113C080919901E0919A01F0919B01DD
:1002E000E80FF11D80818093BB00809199018F5FA1
:1002F0008093990102C01092990180918401882312
:1003000029F0ECEBF0E0808180688083FF91EF9131
:100310009F918F910F900FBE0F901F9018951F9275
:100320000F920FB60F9211248F939F93EF93FF9329
:100330008091D900887F90E090930401809303011D
:100340008091030190910401883A910531F13CF4C8
:100350008038910559F0803A9105C9F042C0883B38
:10036000910561F1803C9105D1F13BC080919901EB
:10037000E0919A01F0919B01E80FF11D8091DB0063
:100380008083809199018F5F809399012AC081E0D9
:10039000809385011092990124C080919901E09188
:1003A0009A01F0919B01E80FF11D80818093DB00A1
:1003B000809199018F5F8093990113C08091990179
:1003C000E0919A01F0919B01E80FF11D80818093EB
:1003D000DB00809199018F5F8093990102C0109298
:1003E000990180918601882329F0ECEDF0E080816D
:1003F00080688083FF91EF919F918F910F900FBE46
:100400000F901F90189510920F0180910E019FEF91
:1004100090930E0108951F920F920FB60F92112420
:100420008F939F938091C60080939C018C3C31F008
:1004300091E090930F0180930E0103C081E08093BF
:1004400087019F918F910F900FBE0F901F9018956D
:100450001F920F920FB60F9211248F9381E0809319
:1004600010018F910F900FBE0F901F901895109252
:10047000C1001092C000442339F0E0ECF0E020818C
:1004800022602083A8E001C0A0E1B0E09B01AC01A4
:100490000E9409059B01AC0160E074E284EF90E0EA
:1004A0000E94E704BA01A90141505109610971098B
:1004B000DB01CA0188279F70AA27BB27892F9A2FA3
:1004C000AB2FBB278093C5004093C400E1ECF0E064
:1004D0008081886D808386E88093C2000895909122
:1004E00010019923E1F3109210018093C600089542
:1004F000EF92FF920F931F93CF93DF937C018B01B9
:1005000010928701C0E0D0E007C0F701EC0FFD1F9B
:1005100080810E946F022196C017D107B0F38091AD
:1005200087018823E1F3DF91CF911F910F91FF9015
:10053000EF900895EF92FF920F931F93CF93DF9365
:100540007C018B01C0E0D0E007C0F701EC0FFD1F7C
:1005500080810E946F022196C017D107B0F32FE768
:1005600088E391E0215080409040E1F700C0000016
:10057000DF91CF911F910F91FF90EF9008950F930E
:100580001F93CF93DF93CDB7DEB760970FB6F89484
:10059000DEBF0FBECDBF41E060E875E280E090E0D5
:1005A0000E94370262E070E08CE091E00E949A02C3
:1005B0008FEB9DE50197F1F700C0000041E060E896
:1005C00074E281E090E00E94370262E070E08AE02D
:1005D00091E00E949A02EFE9FFE03197F1F700C045
:1005E000000062E070E088E091E00E949A028FE3F0
:1005F0009CE90197F1F700C000009FEFE5EBF5E300
:100600009150E040F040E1F700C0000084EF0E940C
:100610006F022FEF81EE94E0215080409040E1F78F
:1006200000C000008E010F5F1F4F80E1F8011192A2
:100630008A95E9F787EC898381E08A838EE18D834F
:1006400083E08F8367E070E0C8010E9478028DE745
:100650008B8367E070E0C8010E947802FFEF21EE13
:1006600084E0F15020408040E1F700C0000063E0EA
:1006700070E085E091E00E947802EFE3FCE93197B9
:10068000F1F700C0000060960FB6F894DEBF0FBE11
:10069000CDBFDF91CF911F910F910895BF92CF925F
:1006A000DF92EF92FF920F931F93CF93DF93CDB71B
:1006B000DEB727970FB6F894DEBF0FBECDBFD82E9A
:1006C000C62E7A01B22E109287018BEE0E946F0225
:1006D0008C2D0E946F028D2D0E946F0200E010E0B1
:1006E000F701E00FF11F80810E946F020F5F1F4F23
:1006F000F701E00FF11F80818111F2CF80E20E94AB
:100700006F0280E00E946F02809187018823E1F3ED
:1007100082E0B81217C087EC8983BA82CB82DC8270
:10072000F70101900020E9F73197EE19FF09ED83F9
:1007300086E08E8380E18F8367E070E0CE010196D2
:100740000E94780227960FB6F894DEBF0FBECDBF89
:10075000DF91CF911F910F91FF90EF90DF90CF909D
:10076000BF900895EF92FF920F931F93CF93DF9363
:10077000CDB7DEB72A970FB6F894DEBF0FBECDBF58
:10078000E62EF42E022F9DEF99839CE39A838B83B0
:1007900085E08C8381E08D83122F1BC0802F8E0D0E
:1007A000811B8A83F11638F08FEF8E838F838887C1
:1007B00089878A8707C080E88E831F8218861986FA
:1007C00081E08A876AE070E0CE0101960E9478029B
:1007D00011501111E3CF8FEF8E838F838887898724
:1007E0008A876AE070E0CE0101960E9478022A961C
:1007F0000FB6F894DEBF0FBECDBFDF91CF911F9132
:100800000F91FF90EF90089541E060E875E280E07D
:1008100090E00E94370261E083E291E00E94B10023
:1008200061E083E291E00E94880061E086E291E06D
:100830000E94B10061E086E291E00E94880061E0E0
:100840008AE191E00E94B10061E08AE191E00E94BA
:10085000880061E08DE191E00E94B10061E08DE1EE
:1008600091E00E94880061E081E191E00E94B10086
:1008700061E081E191E00E94880061E084E191E023
:100880000E94B10061E084E191E00E94880061E093
:1008900087E191E00E94B10061E087E191E00E9470
:1008A0008800789489E291E09093A00180939F0161
:1008B0002FEF39E688E1215030408040E1F700C059
:1008C00000000E94BF0287E191E00E94F3000E94B5
:1008D0000302813039F490919801933018F49F5FAE
:1008E00090939801823039F480919801882319F00F
:1008F000815080939801809198011F928F931F924D
:100900008BE08F9387E391E09F938F9388E891E04A
:100910009F938F930E94230520E044E451E066E01A
:1009200083E00E944E0320E04CE451E068E188E05F
:100930000E944E0320E042E551E063E08BE40E9418
:100940004E0320E04EE551E066E088EB0E944E0346
:1009500020E046E651E068E180EC0E944E0320E58D
:1009600048E26CE288E00E94B20320E54CE36CE2CE
:1009700080EC0E94B203809198012DB73EB7285FAA
:100980003F4F0FB6F8943EBF0FBE2DBF811102C07E
:1009900022E001C020E04CE651E06CE38BE40E94D1
:1009A0004E0380919801813011F422E001C020E0D3
:1009B00047E751E06DE48BE40E944E0320919801DB
:1009C00048E851E06EE58BE40E944E037CCFA1E243
:1009D0001A2EAA1BBB1BFD010DC0AA1FBB1FEE1FB9
:1009E000FF1FA217B307E407F50720F0A21BB30B04
:1009F000E40BF50B661F771F881F991F1A9469F780
:100A000060957095809590959B01AC01BD01CF01DB
:100A100008950E941405A59F900DB49F900DA49F6A
:100A2000800D911D11240895A29FB001B39FC001B4
:100A3000A39F700D811D1124911DB29F700D811D0A
:100A40001124911D0895AEE0B0E0E9E2F5E00C94C8
:100A5000E4070D891E8986E08C831A8309838FEF52
:100A60009FE79E838D83AE01475E5F4F6F89788DD0
:100A7000CE0101960E944505EF81F885E00FF11F38
:100A800010822E96E4E00C940008ABE0B0E0EBE4BA
:100A9000F5E00C94D6076C017B018A01FC011782FA
:100AA0001682838181FFCCC1CE0101963C01F60103
:100AB0009381F70193FD859193FF81917F018823B5
:100AC00009F4BAC1853239F493FD859193FF819180
:100AD0007F01853229F4B60190E00E943C07E7CF00
:100AE000912C212C312CFFE1F315D8F08B3279F0C9
:100AF00038F4803279F08332A1F4232D20611DC0B7
:100B00008D3261F0803369F4232D216016C0832D6E
:100B10008260382EE32DE4603E2E2AC0F32DF8606B
:100B20001DC037FC2DC020ED280F2A3040F08E323A
:100B3000B9F436FC81C1232D2064322E19C036FE53
:100B400006C08AE0989E200D1124922E11C0EAE082
:100B50002E9E200D1124222EF32DF0623F2E08C070
:100B60008C3621F4832D8068382E02C0883641F4FB
:100B7000F70193FD859193FF81917F018111B3CF9F
:100B8000982F9F7D9554933028F40C5F1F4F9FE35F
:100B900099830DC0833631F0833771F0833509F0C6
:100BA00059C021C0F801808189830E5F1F4F8824BE
:100BB0008394912C530113C02801F2E04F0E511C75
:100BC000F801A080B18036FE03C0692D70E002C03C
:100BD0006FEF7FEFC5010E9431074C018201F32DB9
:100BE000FF773F2E16C0280122E0420E511CF8016B
:100BF000A080B18036FE03C0692D70E002C06FEFA7
:100C00007FEFC5010E9426074C01F32DF0683F2EAF
:100C1000820133FC1BC0822D90E088169906B0F447
:100C2000B60180E290E00E943C072A94F4CFF501DF
:100C300037FC859137FE81915F01B60190E00E94FB
:100C40003C0721102A9421E0821A91088114910412
:100C500071F7E8C0843611F0893641F5F80137FEA6
:100C600007C060817181828193810C5F1F4F08C032
:100C700060817181072E000C880B990B0E5F1F4F4E
:100C8000F32DFF763F2E97FF09C0909580957095C4
:100C900061957F4F8F4F9F4FF0683F2E2AE030E0E5
:100CA000A3010E947807882E861845C0853731F445
:100CB000232D2F7EB22E2AE030E025C0932D997F80
:100CC000B92E8F36C1F018F4883579F0B5C0803769
:100CD00019F0883721F0B0C0E92FE061BE2EB4FED4
:100CE0000DC0FB2DF460BF2E09C034FE0AC0292FB1
:100CF0002660B22E06C028E030E005C020E130E0DA
:100D000002C020E132E0F801B7FE07C060817181C6
:100D1000828193810C5F1F4F06C06081718180E0EA
:100D200090E00E5F1F4FA3010E947807882E86185F
:100D3000FB2DFF773F2E36FE0DC0232D2E7FA22EDA
:100D4000891458F434FE0BC032FC09C0832D8E7E0A
:100D5000A82E05C0B82CA32C03C0B82C01C0B92CF8
:100D6000A4FE0FC0FE01E80DF11D8081803321F447
:100D70009A2D997EA92E09C0A2FE06C0B394B39401
:100D800004C08A2D867809F0B394A3FC11C0A0FE9C
:100D900006C0B21488F4280C922C9B180EC0B21412
:100DA00060F4B60180E290E00E943C07B394F7CF74
:100DB000B21418F42B1802C0982C212CA4FE10C0D9
:100DC000B60180E390E00E943C07A2FE17C0A1FCA0
:100DD00003C088E790E002C088E590E0B6010CC04F
:100DE0008A2D867859F0A1FE02C08BE201C080E214
:100DF000A7FC8DE2B60190E00E943C07891438F40C
:100E0000B60180E390E00E943C079A94F7CF8A9461
:100E1000F301E80DF11D8081B60190E00E943C07CE
:100E20008110F5CF222009F442CEB60180E290E095
:100E30000E943C072A94F6CFF6018681978102C072
:100E40008FEF9FEF2B96E2E10C94F207FC010590E7
:100E5000615070400110D8F7809590958E0F9F1FBC
:100E60000895FC016150704001900110D8F7809501
:100E700090958E0F9F1F08950F931F93CF93DF932D
:100E8000FB01238121FD03C08FEF9FEF2CC022FFC8
:100E900016C046815781248135814217530744F497
:100EA000A081B1819D012F5F3F4F318320838C93BF
:100EB000268137812F5F3F4F3783268314C08B01F4
:100EC000EC01FB010084F185E02D0995892BE1F609
:100ED000D80116968D919C911797019617969C9321
:100EE0008E931697CE01DF91CF911F910F910895A8
:100EF000FA01AA27283051F1203181F1E8946F934B
:100F00006E7F6E5F7F4F8F4F9F4FAF4FB1E03ED0F0
:100F1000B4E03CD0670F781F891F9A1FA11D680F8E
:100F2000791F8A1F911DA11D6A0F711D811D911DC1
:100F3000A11D20D009F468943F912AE0269F112436
:100F40003019305D3193DEF6CF010895462F47709A
:100F5000405D4193B3E00FD0C9F7F6CF462F4F70F5
:100F6000405D4A3318F0495D31FD4052419302D053
:100F7000A9F7EACFB4E0A6959795879577956795F9
:100F8000BA95C9F700976105710508959B01AC01F9
:100F90000A2E06945795479537952795BA95C9F720
:100FA000620F731F841F951FA01D08952F923F92FB
:100FB0004F925F926F927F928F929F92AF92BF9269
:100FC000CF92DF92EF92FF920F931F93CF93DF9315
:100FD000CDB7DEB7CA1BDB0B0FB6F894DEBF0FBE72
:100FE000CDBF09942A88398848885F846E847D84BF
:100FF0008C849B84AA84B984C884DF80EE80FD80C1
:101000000C811B81AA81B981CE0FD11D0FB6F89436
:0E101000DEBF0FBECDBFED010895F894FFCFF7
:10101E0001F800F800CB0E01B501E632E806FF013B
:10102E0001280005280004280003280002280001DA
:10103E000000002800002E00030000000200000047
:10104E00006F020000000056616C3D253032643B9B
:10105E00202564004E4557204F494C0031302E3527
:10106E004C0053572076657220302E3161004F4C64
:10107E0044204F494C0031372E334C00456D70746F
:10108E00792074616E6B0052756E206379636C65A6
:02109E00000050
:00000001FF
